{
  "contractName": "Election",
  "abi": [
    {
      "inputs": [],
      "stateMutability": "nonpayable",
      "type": "constructor"
    },
    {
      "anonymous": false,
      "inputs": [
        {
          "indexed": true,
          "internalType": "uint256",
          "name": "_candidateId",
          "type": "uint256"
        }
      ],
      "name": "votedEvent",
      "type": "event"
    },
    {
      "inputs": [
        {
          "internalType": "uint256",
          "name": "",
          "type": "uint256"
        }
      ],
      "name": "candidates",
      "outputs": [
        {
          "internalType": "uint256",
          "name": "id",
          "type": "uint256"
        },
        {
          "internalType": "string",
          "name": "name",
          "type": "string"
        },
        {
          "internalType": "uint256",
          "name": "voteCount",
          "type": "uint256"
        }
      ],
      "stateMutability": "view",
      "type": "function",
      "constant": true
    },
    {
      "inputs": [],
      "name": "candidatesCount",
      "outputs": [
        {
          "internalType": "uint256",
          "name": "",
          "type": "uint256"
        }
      ],
      "stateMutability": "view",
      "type": "function",
      "constant": true
    },
    {
      "inputs": [
        {
          "internalType": "address",
          "name": "",
          "type": "address"
        }
      ],
      "name": "voters",
      "outputs": [
        {
          "internalType": "bool",
          "name": "",
          "type": "bool"
        }
      ],
      "stateMutability": "view",
      "type": "function",
      "constant": true
    },
    {
      "inputs": [
        {
          "internalType": "uint256",
          "name": "_candidateId",
          "type": "uint256"
        }
      ],
      "name": "vote",
      "outputs": [],
      "stateMutability": "nonpayable",
      "type": "function"
    },
    {
      "inputs": [
        {
          "internalType": "uint256",
          "name": "_candidateId",
          "type": "uint256"
        }
      ],
      "name": "getCandidateVotes",
      "outputs": [
        {
          "internalType": "uint256",
          "name": "",
          "type": "uint256"
        }
      ],
      "stateMutability": "nonpayable",
      "type": "function"
    }
  ],
  "bytecode": "0x60806040523480156200001157600080fd5b50620000586040518060400160405280600b81526020017f43616e6469646174652031000000000000000000000000000000000000000000815250620000a460201b60201c565b6200009e6040518060400160405280600b81526020017f43616e6469646174652032000000000000000000000000000000000000000000815250620000a460201b60201c565b620002c3565b60026000815480929190620000b99062000212565b919050555060405180606001604052806002548152602001828152602001600081525060008060025481526020019081526020016000206000820151816000015560208201518160010190805190602001906200011892919062000129565b506040820151816002015590505050565b82805462000137906200028e565b90600052602060002090601f0160209004810192826200015b5760008555620001a7565b82601f106200017657805160ff1916838001178555620001a7565b82800160010185558215620001a7579182015b82811115620001a657825182559160200191906001019062000189565b5b509050620001b69190620001ba565b5090565b5b80821115620001d5576000816000905550600101620001bb565b5090565b7f4e487b7100000000000000000000000000000000000000000000000000000000600052601160045260246000fd5b6000819050919050565b60006200021f8262000208565b91507fffffffffffffffffffffffffffffffffffffffffffffffffffffffffffffffff8203620002545762000253620001d9565b5b600182019050919050565b7f4e487b7100000000000000000000000000000000000000000000000000000000600052602260045260246000fd5b60006002820490506001821680620002a757607f821691505b602082108103620002bd57620002bc6200025f565b5b50919050565b61080e80620002d36000396000f3fe608060405234801561001057600080fd5b50600436106100575760003560e01c80630121b93f1461005c5780632d35a8a2146100785780633477ee2e14610096578063866163c0146100c8578063a3ec138d146100f8575b600080fd5b6100766004803603810190610071919061043a565b610128565b005b6100806102b8565b60405161008d9190610476565b60405180910390f35b6100b060048036038101906100ab919061043a565b6102be565b6040516100bf9392919061052a565b60405180910390f35b6100e260048036038101906100dd919061043a565b610370565b6040516100ef9190610476565b60405180910390f35b610112600480360381019061010d91906105c6565b6103df565b60405161011f919061060e565b60405180910390f35b600160003373ffffffffffffffffffffffffffffffffffffffff1673ffffffffffffffffffffffffffffffffffffffff16815260200190815260200160002060009054906101000a900460ff16156101b5576040517f08c379a00000000000000000000000000000000000000000000000000000000081526004016101ac90610675565b60405180910390fd5b6000811180156101c757506002548111155b610206576040517f08c379a00000000000000000000000000000000000000000000000000000000081526004016101fd906106e1565b60405180910390fd5b60018060003373ffffffffffffffffffffffffffffffffffffffff1673ffffffffffffffffffffffffffffffffffffffff16815260200190815260200160002060006101000a81548160ff021916908315150217905550600080828152602001908152602001600020600201600081548092919061028390610730565b9190505550807ffff3c900d938d21d0990d786e819f29b8d05c1ef587b462b939609625b684b1660405160405180910390a250565b60025481565b60006020528060005260406000206000915090508060000154908060010180546102e7906107a7565b80601f0160208091040260200160405190810160405280929190818152602001828054610313906107a7565b80156103605780601f1061033557610100808354040283529160200191610360565b820191906000526020600020905b81548152906001019060200180831161034357829003601f168201915b5050505050908060020154905083565b6000808211801561038357506002548211155b6103c2576040517f08c379a00000000000000000000000000000000000000000000000000000000081526004016103b9906106e1565b60405180910390fd5b600080838152602001908152602001600020600201549050919050565b60016020528060005260406000206000915054906101000a900460ff1681565b600080fd5b6000819050919050565b61041781610404565b811461042257600080fd5b50565b6000813590506104348161040e565b92915050565b6000602082840312156104505761044f6103ff565b5b600061045e84828501610425565b91505092915050565b61047081610404565b82525050565b600060208201905061048b6000830184610467565b92915050565b600081519050919050565b600082825260208201905092915050565b60005b838110156104cb5780820151818401526020810190506104b0565b838111156104da576000848401525b50505050565b6000601f19601f8301169050919050565b60006104fc82610491565b610506818561049c565b93506105168185602086016104ad565b61051f816104e0565b840191505092915050565b600060608201905061053f6000830186610467565b818103602083015261055181856104f1565b90506105606040830184610467565b949350505050565b600073ffffffffffffffffffffffffffffffffffffffff82169050919050565b600061059382610568565b9050919050565b6105a381610588565b81146105ae57600080fd5b50565b6000813590506105c08161059a565b92915050565b6000602082840312156105dc576105db6103ff565b5b60006105ea848285016105b1565b91505092915050565b60008115159050919050565b610608816105f3565b82525050565b600060208201905061062360008301846105ff565b92915050565b7f566f74657220766f746564206265666f72652100000000000000000000000000600082015250565b600061065f60138361049c565b915061066a82610629565b602082019050919050565b6000602082019050818103600083015261068e81610652565b9050919050565b7f4e6f7420612076616c69642063616e6469646174652100000000000000000000600082015250565b60006106cb60168361049c565b91506106d682610695565b602082019050919050565b600060208201905081810360008301526106fa816106be565b9050919050565b7f4e487b7100000000000000000000000000000000000000000000000000000000600052601160045260246000fd5b600061073b82610404565b91507fffffffffffffffffffffffffffffffffffffffffffffffffffffffffffffffff820361076d5761076c610701565b5b600182019050919050565b7f4e487b7100000000000000000000000000000000000000000000000000000000600052602260045260246000fd5b600060028204905060018216806107bf57607f821691505b6020821081036107d2576107d1610778565b5b5091905056fea2646970667358221220174a06c8caf58aad6065f9e656a2004b2fa4c680ba2aeb2e629ce0c79e17d4a864736f6c634300080e0033",
  "immutableReferences": {},
  "source": "// SPDX-License-Identifier: GPL-3.0\npragma solidity ^0.8.13;\n\ncontract Election {\n    // Model of a Candidate\n    struct Candidate {\n        uint id;\n        string name;\n        uint voteCount;\n    }\n\n    event votedEvent (\n        uint indexed _candidateId\n    );\n\n    // read/write candidates\n    mapping(uint => Candidate) public candidates;\n    // store accounts that voted\n    mapping(address => bool) public voters;\n\n    // Store candidates count\n    uint public candidatesCount;\n\n    function addCandidate (string memory _name) private {\n        candidatesCount ++;\n        candidates[candidatesCount] = Candidate(candidatesCount, _name, 0);\n    }\n\n    function vote (uint _candidateId) public {\n        // require that they haven't voted before\n        require(!voters[msg.sender], \"Voter voted before!\");\n\n        // require a valid candidate\n        require(_candidateId > 0 && _candidateId <= candidatesCount, \"Not a valid candidate!\");\n\n        // record that voter has voted\n        voters[msg.sender] = true;\n\n        // update candidate vote Count\n        candidates[_candidateId].voteCount ++;\n\n        // trigger voted event\n        emit votedEvent(_candidateId);\n    }\n\n    function getCandidateVotes(uint _candidateId) public returns(uint) {\n        require(_candidateId > 0 && _candidateId <= candidatesCount, \"Not a valid candidate!\");\n        return candidates[_candidateId].voteCount;\n    }\n\n    constructor() public {\n        addCandidate(\"Candidate 1\");\n        addCandidate(\"Candidate 2\");\n    }\n}",
  "sourcePath": "/Users/vaumi/Documents/sworrk/ethereum_voting_dapp/ultimate_dapp_tutorial/contracts/Election.sol",
  "compiler": {
    "name": "solc",
    "version": "0.8.14+commit.80d49f37.Emscripten.clang"
  },
  "schemaVersion": "3.4.7",
  "updatedAt": "2022-05-23T11:33:09.540Z",
  "networkType": "ethereum",
  "devdoc": {
    "kind": "dev",
    "methods": {},
    "version": 1
  },
  "userdoc": {
    "kind": "user",
    "methods": {},
    "version": 1
  }
}